:0200D000C180ED
:1000B000E4FDFCC3ED9FEC9E5015E4FBFA0BBB0086
:0F00C000010AEB647B4A70F50DBD00010C80E472
:0100CF00220E
:10008F00D2A0D2B120B1FD7F0A7E0011B020B1F411
:10009F00B200A20092A030B1FD7F0A7E0011B080A5
:0100AF00E36D
:03000000020003F8
:0C000300787FE4F6D8FD75812002004AE9
:10000F0002008FE493A3F8E493A34003F68001F278
:10001F0008DFF48029E493A3F85407240CC8C333F2
:10002F00C4540F4420C8834004F456800146F6DFC1
:10003F00E4800B01020408102040809000D0E47E81
:10004F00019360BCA3FF543F30E509541FFEE493B6
:10005F00A360010ECF54C025E060A840B8E493A37D
:10006F00FAE493A3F8E493A3C8C582C8CAC583CAA8
:10007F00F0A3C8C582C8CAC583CADFE9DEE780BE60
:0100D200002D
:00000001FF
