:10000E00FD820002FD090002FCAC0002FD090002A7
:10001E00FD820002FD090002FCAC0004FD8200021C
:10002E00FD090002FCAC0002FD090002FC440004C4
:10003E00FC440002FCAC0002FD090002FD8200023D
:10004E00FDC80002FD820002FD090002FCAC0004A6
:10005E00FCAC0002FD090002FD820002FD09000257
:10006E00FCAC0002FC440002FAA20004FC440002B4
:10007E00FCAC0002FD090002FCAC0002FC440002D4
:10008E00FAA20002FA500004FC440002FCAC00028A
:10009E00FD090002FD820002FCAC0004FC440002DB
:1000AE00FC440002FCAC0002FD090002FD820002CD
:1000BE00FDC80002FD820002FD090002FCAC000238
:1000CE00FD090002FD820002FD090002FCAC0002E7
:1000DE00FC440002FAA20004FD820002FDC80002E8
:1000EE00FE220002FDC80002FD820004FD0900028E
:1000FE00FCAC0002FD090002FD820002FD090002B7
:10010E00FCAC0004FC440002FC440002FCAC000207
:10011E00FD090002FD820002FDC80002FE2200025F
:10012E00FDC80002FD820004FD090002FCAC0004C3
:08013E00FC4400040000000075
:0400030002080000EF
:1002C1005389F0438901758CFF758AFFD2A9D2AF9A
:0102D100220A
:10027C00EF4E7005C28CD2A522C28C8E0A8F0B8CCD
:0E028C000C8D0DE50AF58CE50BF58AD28C225F
:1001D200E4F50EF50F1202C1E50F25E0FDE50E3341
:1001E200FC740E2DF58274003CF583E493FE7401D9
:1001F20093FF4E604574102DF58274003CF583E444
:1002020093FC740193FD12027CE50F25E0FFE50EDD
:1002120033FE74102FF58274003EF583E493FE746E
:100222000193FF7C007D781202AF12029A740225BC
:100232000FF50FE4350EF50E809EC28CD2A5E4F5C3
:0C0242000EF50F7FD07E0712029A808C10
:03000B0002024EA0
:04024E00C0E0C0D07C
:10025200E50AF58CE50BF58AB2A50509E5097002F8
:100262000508C3950DE508950C400A750800750947
:0502720000C28CD2A5C2
:05027700D0D0D0E03200
:10029A00EF1FAC0670011E4C600A7D027CEFDCFE8B
:0402AA00DDFC80EC0B
:0102AE00222D
:03000000020146B4
:0C014600787FE4F6D8FD75810F02018D72
:1002AF00EF8DF0A4A8F0CF8CF0A428CE8DF0A42E63
:0202BF00FE221D
:100152000201D2E493A3F8E493A34003F68001F2F0
:1001620008DFF48029E493A3F85407240CC8C333AE
:10017200C4540F4420C8834004F456800146F6DF7D
:10018200E4800B0102040810204080900003E47E0A
:10019200019360BCA3FF543F30E509541FFEE49372
:1001A200A360010ECF54C025E060A840B8E493A339
:1001B200FAE493A3F8E493A3C8C582C8CAC583CA64
:1001C200F0A3C8C582C8CAC583CADFE9DEE780BE1C
:0100070000F8
:00000001FF
