:03009400363600FD
:100021001200567F647E001200037BFF7A007994F0
:0C00310012006D7FE87E0312000380F7D0
:1000560075985053890F438920758DFA758BFA531D
:07006600877FD28EC2AC229D
:08008C008F993099FDC2992201
:10006D0012003DFF600C12008C740129F9E43AFA7C
:03007D0080EE22F0
:10000300D3EF9400EE940040147D727C00ED1D70DC
:0D001300011CED4C70F7EF1F70E61E80E33E
:0100200022BD
:030000000200807B
:0C008000787FE4F6D8FD758107020021AE
:10003D00BB010689828A83E0225002E722BBFE02C1
:09004D00E32289828A83E49322F4
:00000001FF
