:03010D00010801E5
:0400C5007F0A7E0030
:1000C900E4FDFCC3ED9FEC9E5015E4FBFA0BBB006D
:0F00D900010AEB647B4A70F50DBD00010C80E459
:0100E80022F5
:1000E90020B10E1200C520B10830B1FD1200C5D3F0
:0300F90022C322FD
:1000FC0020B00C11C520B00730B0FD11C5D322C300
:01010C0022D0
:10008F0075A0FFD2B1D2B0E508F4F5A011E9501078
:10009F00AF087801EF08800103D8FDF508F4F5A04B
:1000AF0011FC50E8AF087801EF08800123D8FDF567
:0600BF0008F4F5A080D654
:03000000020003F8
:0C000300787FE4F6D8FD75810802004A01
:10000F0002008FE493A3F8E493A34003F68001F278
:10001F0008DFF48029E493A3F85407240CC8C333F2
:10002F00C4540F4420C8834004F456800146F6DFC1
:10003F00E4800B010204081020408090010DE47E43
:10004F00019360BCA3FF543F30E509541FFEE493B6
:10005F00A360010ECF54C025E060A840B8E493A37D
:10006F00FAE493A3F8E493A3C8C582C8CAC583CAA8
:10007F00F0A3C8C582C8CAC583CADFE9DEE780BE60
:0101100000EE
:00000001FF
