:060003003F065B4F666D35
:10018200010C00020D0000010B0001080002090031
:01019200006C
:0E019400C290E4F580D2A4D2A3D2A202016FE1
:10016F005389F0438901758CFC758A66D2A9D2AF89
:03017F00D28C22FD
:10013200E4FDFCC3ED9FEC9E5015E4FBFA0BBB0003
:0F014200010AEB64724A70F50DBD00010C80E4F8
:01015100228B
:0E01A200EFD394055007EF90000393F58022F1
:1001520020B1147F0A7E0012013220B10DE5087031
:0C016200097508017F0122E4F5087F0008
:01016E00226E
:10010600EF1460101460111460121460131460145C
:1001160024058014750B1422750B2822750B3C22BE
:0C012600750B5022750B6422E4F50B22CF
:03000B0002009A56
:04009A00C0E0C0D032
:10009E00758CFC758A66050EE50E7002050D050A57
:1000AE00E50A70020509C39464E5099400400675DB
:1000BE000900750A00C3E50A950BE5099400500482
:0600CE00D2908002C290F6
:0500D400D0D0D0E032A5
:1000D900120194E4FF1201A2120152EF60FA050C19
:1000E900E50CD394054003E4F50CAF0C120106AFFF
:0D00F9000C1201A27F2C7E0112013280DB6F
:0300000002000EED
:0C000E00787FE4F6D8FD75810E020055E5
:10001A000200D9E493A3F8E493A34003F68001F223
:10002A0008DFF48029E493A3F85407240CC8C333E7
:10003A00C4540F4420C8834004F456800146F6DFB6
:10004A00E4800B0102040810204080900182E47EC3
:10005A00019360BCA3FF543F30E509541FFEE493AB
:10006A00A360010ECF54C025E060A840B8E493A372
:10007A00FAE493A3F8E493A3C8C582C8CAC583CA9D
:10008A00F0A3C8C582C8CAC583CADFE9DEE780BE55
:01019300006B
:00000001FF
