:0C00FB000A083F065B4F666D7D077F6FB3
:0B010800EF1FAC0670011E4C70F622C9
:10008F00E4F580EF14B4080050549000A775F00306
:10009F00A4C58325F0C583730200BF0200C302000D
:1000AF00C70200CB0200CF0200D70200DF0200E739
:1000BF00D2A4800ED2A48012D2A48016D2A4801A09
:1000CF00C2A4D2A3D2A28016C2A4D2A3C2A2800E6F
:1000DF00C2A4C2A3D2A28006C2A4C2A3C2A27408A1
:0C00EF002DF8E6F5807FE87E0302010892
:090113007D057F0612008F80F7C4
:03000000020003F8
:0C000300787FE4F6D8FD75811102004AF8
:10000F00020113E493A3F8E493A34003F68001F2F3
:10001F0008DFF48029E493A3F85407240CC8C333F2
:10002F00C4540F4420C8834004F456800146F6DFC1
:10003F00E4800B01020408102040809000FBE47E56
:10004F00019360BCA3FF543F30E509541FFEE493B6
:10005F00A360010ECF54C025E060A840B8E493A37D
:10006F00FAE493A3F8E493A3C8C582C8CAC583CAA8
:10007F00F0A3C8C582C8CAC583CADFE9DEE780BE60
:0101070000F7
:00000001FF
