:1001E8004469676974616C20436F756E7465720049
:1000E300AB0CE4FDFF12014A7F3A120218AB09E49C
:1000F300FD7F0312014A7F3A120218AB08E4FD7F29
:040103000602014AA5
:100107001201697BFF7A0179E87D01E4FF12019D05
:100117001200E31201D71200033000FDC2001200E3
:03012700E380F67C
:0F01F800010C00010900010800C100020A00000B
:1001D7005389F0438901758C3C758AB0D2A9D2AF97
:0101E70022F5
:03000300D28C227A
:03000600C28C2287
:03000B0002009A56
:10009A00C0E0C0D0758C3C758AB0050BE50B7002C8
:1000AA00050AC39414E50A94004029750A00750BE1
:1000BA00000508E508943C40197508000509E5099A
:1000CA00943C400E750900050CE50C941840037524
:0900DA000C00D200D0D0D0E032BD
:10012A00E4FDFCC3ED9FEC9E5015E4FBFA0BBB000B
:0F013A00010AEB64784A70F50DBD00010C80E4FA
:010149002293
:1001B3007580FFC2A6D2A5D2A7AF80C2A7EF20E762
:0101C300F645
:0101C4002218
:10020800AE071201B3C2A6C2A58E80D2A7C2A7228A
:10021800AE071201B3D2A6C2A58E80D2A7C2A7226A
:100169007F381202087F0C1202087F061202087FEC
:0B017900011202087F027E0002012A32
:1001C500ED7004AC078004EF2440FCEC4480FF0292
:0201D50002081E
:10019D001201C5120184FF600C120218740129F9B5
:0601AD00E43AFA80EE22A4
:10014A00EB75F00A842430F50DEB75F00A84E5F0BE
:0F015A002430F50EE4F50FFB7A00790D02019DBC
:0300000002000EED
:0C000E00787FE4F6D8FD758120020055D3
:10018400BB010689828A83E0225002E722BBFE0279
:09019400E32289828A83E49322AC
:10001A00020107E493A3F8E493A34003F68001F2F4
:10002A0008DFF48029E493A3F85407240CC8C333E7
:10003A00C4540F4420C8834004F456800146F6DFB6
:10004A00E4800B01020408102040809001F8E47E4D
:10005A00019360BCA3FF543F30E509541FFEE493AB
:10006A00A360010ECF54C025E060A840B8E493A372
:10007A00FAE493A3F8E493A3C8C582C8CAC583CA9D
:10008A00F0A3C8C582C8CAC583CADFE9DEE780BE55
:0102070000F6
:00000001FF
