:10061A0050617373776F7264204C6F636B3A004951
:10062A006E7075742034206469676974732100548C
:10063A006F6F206D616E79206572726F727321001F
:10064A0053797374656D206C6F636B656421202028
:10065A000043616E63656C656421202020202000C0
:10066A004F4B20202000455252202000496E7661CF
:0A067A006C6964206B657921200093
:1009A400043500000000012F000134000430040667
:0209B400070238
:10095600120934120A73120A3AE4F5347BFF7A0656
:0A096600791AFDFF12090E0208992C
:10089900E535FB7A00750F01E4FD7F011207B3E529
:1008A90036FB7A00750F017D017F011207B3E53729
:1008B900FB7A00750F017D027F011207B3E538FB52
:0C08C9007A00750F017D037F010207B368
:1009BD008F0AE52FC394044003120A3A7435252F8C
:0809CD00F8A60A052F020899A3
:1006ED00750A01E52F6404600D7BFF7A0679297D7B
:1006FD00057F0102090EE4FF74302FF8E6FE743514
:10070D002FF8E66E6005E4F50A80040FBF04E9AF2B
:10071D000A1208D5E50A6005E4F53480240534E5B0
:10072D0034C39403401B7BFF7A067939E4FDFF1235
:10073D00090E7BFF7A06794AE4FD7F0112090E80CE
:07074D00FE120A3A1208999E
:010754002282
:100A1500120A3A1208997BFF7A06795B7D057F01F8
:030A250002090EB5
:0C0A3A007F047835E4F608DFFCE4F52FBB
:010A4600228D
:1008D500EF7BFF600B7A06796A7D057F0102090EC1
:1008E5007A0679707D057F0112090EC3740395346C
:1008F500FBE49400FA750F017D0C7F011207B37BB1
:09090500207D0D7F01120A692218
:100808001209561209EB120A7A8F08E50860F4C338
:0B0818009401401BE508D3940A501423
:10082300E508B40A05E4F5098003850809AF091250
:0208330009BDFD
:1008350080D4E508B40B051206ED80CAE508B40CB2
:1008450005120A1580C07BFF7A0679767D057F0142
:0508550012090E80B144
:050A80003078000000C9
:0B0A5300EF1FAC0670011E4C70F62275
:100A01007580FFC2A6D2A5D2A700E580339200C2AD
:030A1100A7A20099
:010A140022BF
:10097000120A0140FBC2A6C2A5C2A78F8000D2A75F
:0A09800000C2A77F057E00020A53A3
:10098A00120A0140FBD2A6C2A5C2A78F8000D2A735
:0A099A0000C2A77F057E00020A5389
:100934007FDC7E05120A537F381209707F0C12097E
:10094400707F061209707F011209707FF47E010224
:020954000A5344
:0C0A47007F011209707FF47E01020A5347
:100A2800EF7006ED2480FB8004ED24C0FBAF0302C9
:020A3800097043
:10090E008B178A188919120A28AB17AA18A9191257
:10091E000440FF601012098A74012519F519E43597
:06092E0018F51880E42218
:0807B3008F0B8D0C8A0D8B0EDB
:1007BB00E4F510E510C3950F5030AE0DAF0E7C0075
:1007CB007D0A120459ED2430FFE510FDE50FC39DA2
:1007DB00FD74102DF8A607AE0DAF0E7C007D0A122E
:1007EB0004598E0D8F0E051080C97411250FF8E476
:0D07FB00F6FB7A007911AD0CAF0B02090E70
:10085A008F1A8D1B8A1C8B1DC3E51C6480948050E3
:10086A00127B2D120A69C3E4951DF51DE4951CF54A
:10087A001C80097B2BAD1BAF1A120A69E51B04FD0C
:0F088A00AA1CAB1DE51E14F50FAF1A1207B322FF
:080684008F398D3A8A3B8B3C53
:10068C00783E7C007D007BFF7A0A79807E007F05B6
:10069C0012041AE4FDEDC3953D5033E53D14C39DA2
:1006AC0025E025E0FFE53CAE3BA807088005CEC35E
:1006BC0013CE13D8F9540FFFC3940AEF500424300F
:1006CC0080022437FF74402DF8A6070D80C77440B4
:1006DC00253DF8E4F6FB7A00793EAD3AAF390209D4
:0106EC000EFF
:0A0A6900AA03120A28AF0202098A4C
:0404BC008F218D22DD
:1004C000E4FFFEFDFCAB26AA25A924A82312020105
:1004D00050207B2DAD22AF21120A69AF26AE25AD8B
:1004E00024AC2312027A8F268E258D248C2305229C
:1004F000800B7B2BAD22AF21120A690522AF26AEFD
:1005000025AD24AC231202C98E298F2A85270FAB73
:100510002AAA29AD22AF211207B3E5222527FD7BA8
:100520002EAF21120A69AC29AD2AE4120290A80468
:10053000A905AA06AB07AF26AE25AD24AC23120051
:10054000068F2E8E2D8D2C8C2B852828E528D39474
:1005500000401EAF2EAE2DAD2CAC2BE4FBFA792063
:1005600078411200FB8F2E8E2D8D2C8C2B15288020
:10057000DBAF2EAE2DAD2CAC2B1202C9AB07AA06F9
:0E058000E522252704FD85280FAF210207B3D1
:0609B600014400014300B2
:0B0A5E00EF1FAC0670011E4C70F6226A
:070A73007590FFE4F5442239
:10075500E4F50AFDED2404FF7401A807088002C32F
:1007650033D8FCF4F5900000E590540FF9640F6060
:1007750033E4FC74017E00A804088005C333CE333E
:10078500CED8F9FFE9FBEF5B7016EDF40425E02503
:10079500E0FFECF4042F2410F50A7590FFAF0A2250
:0D07A5000CBC04CF0DBD04AC7590FF7F00AF
:0107B2002224
:1009D500120755EF60097F647E00120A5E80F17F81
:0609E500647E00020A5EC0
:1009EB00120755EF6003F54322E5436008F544E435
:0509FB00F5431209D5CF
:010A000022D3
:050A7A00AF44E4F54467
:010A7F002254
:10000300020335E86480F8E933E83360110460F0F3
:10001300ED33EC337009E8FCE9FDEAFEEBFF220463
:1000230060DED3EB9FEA9EE99DE8C2E78CF0C2F75E
:1000330095F0400CE8CCF8E9CDF9EACEFAEBCFFB2A
:1000430012030085D0F05804700320D5B3E8047080
:10005300075002B2D502033F92D5EC0460F7E4CC1B
:10006300C0E0C398F8603B94186008400DD0E0FBF3
:10007300020317E4FBFAC9FC8028E830E406E4C96C
:10008300FBE4CAFCE830E305E4C9CACBFCE8540747
:100093006010F8C3E913F9EA13FAEB13FBEC13FC52
:1000A300D8F130F52FC3E49CFCEF9BFFEE9AFEEDF5
:1000B30099FDD0E0FBEF4E4D4C701222DB0302039F
:1000C3003CEC2CFCEF33FFEE33FEED33FDED30E77C
:1000D300EB020317EF2BFFEE3AFEED39FDD0E0FB09
:1000E30050130BBB000302033FED13FDEE13FEEFB2
:0800F30013FFEC13FC020317DC
:1000FB00EC4D6011E8497017ED33EC3304600DE4FF
:10010B00FCFFFEFD22E933E8330470F802033512DD
:10011B00030058046009E4CC2481500628500902DE
:10012B00033F28400302033CC0E0EB4A7044B98014
:10013B0006D0E0FB02032BEF4E701CBD8008EBFFDB
:10014B00EAFEE9FD80EBE98DF0A4FEE5F00201E4A7
:10015B00E9CDF9EAFEEBFFEF89F0A4FCE5F0CE89DF
:10016B00F0A42EFFE435F0CD89F0A42DFEE435F09C
:10017B008067EF4E7005BD80D780C3EF8BF0A4ACCA
:10018B00F0EE8BF0A42CFCE435F0F8EF8AF0A42C05
:10019B00E5F038FCE433CB8DF0A42CFCE5F03BF818
:1001AB00EE8AF0A42CFCE5F038F8E433CF89F0A408
:1001BB002CFCE5F038CF3400CE89F0A42FFFE5F00E
:1001CB003EFEE433C98DF0A42EFEE5F039CD8AF066
:1001DB00A42FFFE5F03EFEE43DFD33D0E0FB5007DE
:1001EB000BBB000F02033FEC2CFCEF33FFEE33FE97
:0601FB00ED33FD020317C5
:1002010074F8CC6480CCC86480C8F58204604FC3A4
:10021100EB9FF5F0EA9E42F0E99D42F0E89C45F043
:10022100603C501DE5825FFFE582D313CB5BCBF4CD
:100231002B5582FB50280ABA002409B900200880F6
:100241001DE5825BFBE582D313CF5FCFF4C3132F90
:100251005582FF50090EBE00050DBD00010CC3EB18
:100261009FF5F0EA9E42F0E99D42F0E89C45F0607E
:0902710007CC4820E701B3EC22A0
:10027A00ED33EC33600A047003BD8004ECB2E7FC92
:01028A002251
:10028B0075F020800E75F010800575F0087D007EEE
:10029B00007F003392D530D5031204AEEC334010FF
:1002AB00EF33FFEE33FEED33FDEC33FCD5F0ED22F7
:0E02BB00E5F0247EA2D513CC92E7CDCEFF2233
:1002C900EDD2E7CD33EC3392D524814006E4FFFE2D
:1002D900FDFC22FCE4CFCECDCC24E0501174FF808C
:1002E900EDC3CC13CCCD13CDCE13CECF13CF047029
:0702F900F030D5DE0204AE77
:10030000E9D2E7C933E833F892D5EDD2E7CD33EC43
:0703100033FC5002B2D522BC
:10031700EC30E7100FBF000C0EBE00080DBD000447
:100327000BEB6014A2D5EB13FCED92E7FD2274FFF3
:10033700FCFDFEFF22E480F8A2D574FF13FC7D804C
:03034700E480EF60
:0300000002058E68
:0C058E00787FE4F6D8FD7581440205D5A5
:10034A00E709F608DFFA8046E709F208DFFA803E95
:10035A0088828C83E709F0A3DFFA8032E309F60882
:10036A00DFFA8078E309F208DFFA807088828C83EA
:10037A00E309F0A3DFFA806489828A83E0A3F6089E
:10038A00DFFA805889828A83E0A3F208DFFA804C78
:10039A0080D280FA80C680D4806980F2803380104F
:1003AA0080A680EA809A80A880DA80E280CA8033B8
:1003BA0089828A83ECFAE493A3C8C582C8CCC58330
:1003CA00CCF0A3C8C582C8CCC583CCDFE9DEE78000
:1003DA000D89828A83E493A3F608DFF9ECFAA9F07F
:1003EA00EDFB2289828A83ECFAE0A3C8C582C8CCD5
:1003FA00C583CCF0A3C8C582C8CCC583CCDFEADEEE
:10040A00E880DB89828A83E493A3F208DFF980CC4F
:10041A0088F0EF60010E4E60C388F0ED2402B40448
:10042A000050B9F582EB2402B4040050AF232345EF
:06043A00822390039A7377
:10044000BB010689828A83E0225002E722BBFE02BA
:09045000E32289828A83E49322ED
:10045900BC000BBE0029EF8DF084FFADF022E4CC87
:10046900F875F008EF2FFFEE33FEEC33FCEE9DEC50
:10047900984005FCEE9DFE0FD5F0E9E4CEFD22ED96
:10048900F8F5F0EE8420D21CFEADF075F008EF2FE0
:10049900FFED33FD4007985006D5F0F222C398FDD1
:0504A9000FD5F0EA226E
:0E04AE00C3E49FFFE49EFEE49DFDE49CFC225F
:10059A00020808E493A3F8E493A34003F68001F267
:1005AA0008DFF48029E493A3F85407240CC8C33362
:1005BA00C4540F4420C8834004F456800146F6DF31
:1005CA00E4800B01020408102040809009A4E47E14
:1005DA00019360BCA3FF543F30E509541FFEE49326
:1005EA00A360010ECF54C025E060A840B8E493A3ED
:1005FA00FAE493A3F8E493A3C8C582C8CAC583CA18
:10060A00F0A3C8C582C8CAC583CADFE9DEE780BECF
:0109BC00003A
:00000001FF
