:0901610002110000C1000110FEB2
:10009A000512E51270020511C394E8E511940340B4
:1000AA0031E4F511F512200010E51025E04401F5C0
:1000BA0010B4FF1B7510FE8016E510C3134480F5BB
:1000CA0010B47F0375107FE510B4FF0375107F85A8
:0300DA0010A02251
:10014C0012000A1201727BFF7A00799A120003D214
:05015C00AF8510A02298
:1001320012014C12010C50FBB2002000057510FE9A
:0A014200800375107F8510A080E98E
:02016A00C101D1
:01000A0022D3
:03010C0020B11F00
:10010F00E4F516F5170517E51770020516B4E8F5AF
:05011F00E516B403F039
:0D01240020B109200106D201D322C201C37F
:0101310022AB
:05016C00031300000078
:100172005389F0438901758CFC758A18D2A9D28CF7
:01018200225A
:070003008B138A14891522FA
:03000B000200DD13
:1000DD00C0E0C0F0C083C082C0D075D008758CFC64
:1000ED00758A18AB13AA14A915AE0AAF09EF4E60A5
:0F00FD0003120183D0D0D082D083D0F0D0E03274
:0300000002000EED
:0C000E00787FE4F6D8FD758120020055D3
:060183008A838982E47307
:10001A00020132E493A3F8E493A34003F68001F2C9
:10002A0008DFF48029E493A3F85407240CC8C333E7
:10003A00C4540F4420C8834004F456800146F6DFB6
:10004A00E4800B0102040810204080900161E47EE4
:10005A00019360BCA3FF543F30E509541FFEE493AB
:10006A00A360010ECF54C025E060A840B8E493A372
:10007A00FAE493A3F8E493A3C8C582C8CAC583CA9D
:10008A00F0A3C8C582C8CAC583CADFE9DEE780BE55
:01017100008D
:00000001FF
