:1000EB00202D204C4544CFD4CABE3A20002028B640
:1000FB00FEBDF8D6C63A2000290D0A003D3D3D2035
:10010B004C4544B6FEBDF8D6C6CFD4CABEC6F72002
:10011B003D3D3D0D0A004C4544317E4C454438C1B4
:10012B00ACBDD3D4DA50322E307E50322E370D0A7E
:10013B0000C7EBCAE4C8EB302D323535D6AEBCE484
:10014B00B5C4CAD7D63A0D0A00C0C8E73A20B7A241
:10015B00CBCD352028B6FEBDF8D6C630303030308A
:10016B003130312920B5E3C1C14C454431BACD4CB6
:10017B004544330D0A003D3D3D3D3D3D3D3D3D3D3F
:10018B003D3D3D3D3D3D3D3D3D3D3D3D3D0D0A0034
:0302C20001080030
:03002300020026B2
:10002600C0E0C0F0C083C082C0D075D000C000C0A0
:1000360001C002C003C004C005C006C00720980363
:100046000200CBC298859908AF081202BDAF08120C
:1000560002AD7BFF7A0079EB12029AE50875F0642F
:10006600842430FF1202ADE50875F00A8475F00AA3
:1000760084E5F02430FF1202ADE50875F00A84E548
:10008600F02430FF1202AD7BFF7A0079F812029A53
:1000960075090074807E00A809088006CEA2E713C1
:1000A600CE13D8F8FFEF550860047F3180027F3009
:0C00B6001202AD0509E509C3940840D70B
:1000C2007BFF7A01790312029A309902C299D00712
:1000D200D006D005D004D003D002D001D000D0D0B9
:0900E200D082D083D0F0D0E032CE
:100227001202681202C67BFF7A01790712029A7BD3
:10023700FF7A01792112029A7BFF7A01793C120237
:100247009A7BFF7A01795412029A7BFF7A017981AE
:1002570012029AE4FF1202BD7F647E00120003803F
:01026700F79F
:1002680075985053890F438920758DFA758BFA5309
:09027800877FD28ED2ACD2AF22F6
:0802AD008F993099FDC29922DE
:10029A00120281FF600C1202AD740129F9E43AFAE4
:0302AA0080EE22C1
:0702B5003098FDAF99C298DB
:0102BC00221F
:10000300D3EF9400EE940040147D727C00ED1D70DC
:0D001300011CED4C70F7EF1F70E61E80E33E
:0100200022BD
:0402C60075A0FF22FE
:0502BD00EFF4F5A022A2
:0300000002019B5F
:0C019B00787FE4F6D8FD7581090201E2CE
:10028100BB010689828A83E0225002E722BBFE027B
:09029100E32289828A83E49322AE
:1001A700020227E493A3F8E493A34003F68001F245
:1001B70008DFF48029E493A3F85407240CC8C33359
:1001C700C4540F4420C8834004F456800146F6DF28
:1001D700E4800B01020408102040809002C2E47EF4
:1001E700019360BCA3FF543F30E509541FFEE4931D
:1001F700A360010ECF54C025E060A840B8E493A3E4
:10020700FAE493A3F8E493A3C8C582C8CAC583CA0E
:10021700F0A3C8C582C8CAC583CADFE9DEE780BEC6
:0102C5000038
:00000001FF
