:10088C004B657920546573743A004B65793A202096
:02089C0020003A
:1006E1001208DC1207F67BFF7A08798CE4FDFF1211
:1006F10007D07BFF7A087996E4FD7F011207D012BB
:1007010008621208EA8F08E50860F4C3940A501AD7
:100711007B307D057F011208D2E508FB7A00750D5B
:10072100017D067F0112073C80D5E508FB7A007543
:0B0731000D027D057F0112073C80C413
:0508F00030780000005B
:0B08BC00EF1FAC0670011E4C70F6220E
:100878007580FFC2A6D2A5D2A700E580339200C238
:03088800A7A20024
:01088B00224A
:1008180012087840FBC2A6C2A5C2A78F8000D2A743
:0A08280000C2A77F057E000208BC95
:1008320012087840FBD2A6C2A5C2A78F8000D2A719
:0A08420000C2A77F057E000208BC7B
:1007F6007FDC7E051208BC7F381208187F0C1208B1
:10080600187F061208187F011208187FF47E01026D
:0208160008BC1C
:0C08B0007F011208187FF47E010208BCD2
:10089E00EF7006ED2480FB8004ED24C0FBAF030255
:0208AE00081828
:1007D0008B158A16891712089EAB15AA16A917122F
:1007E0000440FF601012083274012517F517E43534
:0607F00016F51680E4225C
:08073C008F098D0A8A0B8B0C5A
:10074400E4F50EE50EC3950D5030AE0BAF0C7C00F6
:100754007D0A120459ED2430FFE50EFDE50DC39D1D
:10076400FD740E2DF8A607AE0BAF0C7C007D0A12AB
:1007740004598E0B8F0C050E80C9740F250DF8E4F7
:0D078400F6FB7A00790FAD0AAF090207D02D
:100791008F188D198A1A8B1BC3E51A6480948050B7
:1007A100127B2D1208D2C3E4951BF51BE4951AF5B3
:1007B1001A80097B2BAD19AF181208D2E51904FD77
:0F07C100AA1AAB1BE51C14F50DAF1812073C224A
:08061A008F2F8D308A318B32E5
:1006220078347C007D007BFF7A0879F07E007F05BC
:1006320012041AE4FDEDC395335033E53314C39D20
:1006420025E025E0FFE532AE31A807088005CEC3DC
:1006520013CE13D8F9540FFFC3940AEF5004243079
:1006620080022437FF74362DF8A6070D80C7743632
:100672002533F8E4F6FB7A007934AD30AF2F020768
:01068200D0A7
:0A08D200AA0312089EAF02020832CA
:0404BC008F218D22DD
:1004C000E4FFFEFDFCAB26AA25A924A82312020105
:1004D00050207B2DAD22AF211208D2AF26AE25AD24
:1004E00024AC2312027A8F268E258D248C2305229C
:1004F000800B7B2BAD22AF211208D20522AF26AE96
:1005000025AD24AC231202C98E298F2A85270DAB75
:100510002AAA29AD22AF2112073CE5222527FD7B1F
:100520002EAF211208D2AC29AD2AE4120290A80401
:10053000A905AA06AB07AF26AE25AD24AC23120051
:10054000068F2E8E2D8D2C8C2B852828E528D39474
:1005500000401EAF2EAE2DAD2CAC2BE4FBFA792063
:1005600078411200FB8F2E8E2D8D2C8C2B15288020
:10057000DBAF2EAE2DAD2CAC2B1202C9AB07AA06F9
:0E058000E522252704FD85280DAF2102073C4A
:0608E300011E00011D00D2
:0B08C700EF1FAC0670011E4C70F62203
:0708DC007590FFE4F51E22F8
:10068300E4F509FDED2404FF7401A807088002C303
:1006930033D8FCF4F5900000E590540FF9640F6033
:1006A30033E4FC74017E00A804088005C333CE3311
:1006B300CED8F9FFE9FBEF5B7016EDF40425E025D6
:1006C300E0FFECF4042F2410F5097590FFAF092225
:0D06D3000CBC04CF0DBD04AC7590FF7F0082
:0106E00022F7
:10084C00120683EF60097F647E001208C780F17F77
:06085C00647E000208C7E3
:10086200120683EF6003F51D22E51D6008F51EE404
:05087200F51D12084C09
:01087700225E
:0508EA00AF1EE4F51E45
:0108EF0022E6
:10000300020335E86480F8E933E83360110460F0F3
:10001300ED33EC337009E8FCE9FDEAFEEBFF220463
:1000230060DED3EB9FEA9EE99DE8C2E78CF0C2F75E
:1000330095F0400CE8CCF8E9CDF9EACEFAEBCFFB2A
:1000430012030085D0F05804700320D5B3E8047080
:10005300075002B2D502033F92D5EC0460F7E4CC1B
:10006300C0E0C398F8603B94186008400DD0E0FBF3
:10007300020317E4FBFAC9FC8028E830E406E4C96C
:10008300FBE4CAFCE830E305E4C9CACBFCE8540747
:100093006010F8C3E913F9EA13FAEB13FBEC13FC52
:1000A300D8F130F52FC3E49CFCEF9BFFEE9AFEEDF5
:1000B30099FDD0E0FBEF4E4D4C701222DB0302039F
:1000C3003CEC2CFCEF33FFEE33FEED33FDED30E77C
:1000D300EB020317EF2BFFEE3AFEED39FDD0E0FB09
:1000E30050130BBB000302033FED13FDEE13FEEFB2
:0800F30013FFEC13FC020317DC
:1000FB00EC4D6011E8497017ED33EC3304600DE4FF
:10010B00FCFFFEFD22E933E8330470F802033512DD
:10011B00030058046009E4CC2481500628500902DE
:10012B00033F28400302033CC0E0EB4A7044B98014
:10013B0006D0E0FB02032BEF4E701CBD8008EBFFDB
:10014B00EAFEE9FD80EBE98DF0A4FEE5F00201E4A7
:10015B00E9CDF9EAFEEBFFEF89F0A4FCE5F0CE89DF
:10016B00F0A42EFFE435F0CD89F0A42DFEE435F09C
:10017B008067EF4E7005BD80D780C3EF8BF0A4ACCA
:10018B00F0EE8BF0A42CFCE435F0F8EF8AF0A42C05
:10019B00E5F038FCE433CB8DF0A42CFCE5F03BF818
:1001AB00EE8AF0A42CFCE5F038F8E433CF89F0A408
:1001BB002CFCE5F038CF3400CE89F0A42FFFE5F00E
:1001CB003EFEE433C98DF0A42EFEE5F039CD8AF066
:1001DB00A42FFFE5F03EFEE43DFD33D0E0FB5007DE
:1001EB000BBB000F02033FEC2CFCEF33FFEE33FE97
:0601FB00ED33FD020317C5
:1002010074F8CC6480CCC86480C8F58204604FC3A4
:10021100EB9FF5F0EA9E42F0E99D42F0E89C45F043
:10022100603C501DE5825FFFE582D313CB5BCBF4CD
:100231002B5582FB50280ABA002409B900200880F6
:100241001DE5825BFBE582D313CF5FCFF4C3132F90
:100251005582FF50090EBE00050DBD00010CC3EB18
:100261009FF5F0EA9E42F0E99D42F0E89C45F0607E
:0902710007CC4820E701B3EC22A0
:10027A00ED33EC33600A047003BD8004ECB2E7FC92
:01028A002251
:10028B0075F020800E75F010800575F0087D007EEE
:10029B00007F003392D530D5031204AEEC334010FF
:1002AB00EF33FFEE33FEED33FDEC33FCD5F0ED22F7
:0E02BB00E5F0247EA2D513CC92E7CDCEFF2233
:1002C900EDD2E7CD33EC3392D524814006E4FFFE2D
:1002D900FDFC22FCE4CFCECDCC24E0501174FF808C
:1002E900EDC3CC13CCCD13CDCE13CECF13CF047029
:0702F900F030D5DE0204AE77
:10030000E9D2E7C933E833F892D5EDD2E7CD33EC43
:0703100033FC5002B2D522BC
:10031700EC30E7100FBF000C0EBE00080DBD000447
:100327000BEB6014A2D5EB13FCED92E7FD2274FFF3
:10033700FCFDFEFF22E480F8A2D574FF13FC7D804C
:03034700E480EF60
:0300000002058E68
:0C058E00787FE4F6D8FD7581380205D5B1
:10034A00E709F608DFFA8046E709F208DFFA803E95
:10035A0088828C83E709F0A3DFFA8032E309F60882
:10036A00DFFA8078E309F208DFFA807088828C83EA
:10037A00E309F0A3DFFA806489828A83E0A3F6089E
:10038A00DFFA805889828A83E0A3F208DFFA804C78
:10039A0080D280FA80C680D4806980F2803380104F
:1003AA0080A680EA809A80A880DA80E280CA8033B8
:1003BA0089828A83ECFAE493A3C8C582C8CCC58330
:1003CA00CCF0A3C8C582C8CCC583CCDFE9DEE78000
:1003DA000D89828A83E493A3F608DFF9ECFAA9F07F
:1003EA00EDFB2289828A83ECFAE0A3C8C582C8CCD5
:1003FA00C583CCF0A3C8C582C8CCC583CCDFEADEEE
:10040A00E880DB89828A83E493A3F208DFF980CC4F
:10041A0088F0EF60010E4E60C388F0ED2402B40448
:10042A000050B9F582EB2402B4040050AF232345EF
:06043A00822390039A7377
:10044000BB010689828A83E0225002E722BBFE02BA
:09045000E32289828A83E49322ED
:10045900BC000BBE0029EF8DF084FFADF022E4CC87
:10046900F875F008EF2FFFEE33FEEC33FCEE9DEC50
:10047900984005FCEE9DFE0FD5F0E9E4CEFD22ED96
:10048900F8F5F0EE8420D21CFEADF075F008EF2FE0
:10049900FFED33FD4007985006D5F0F222C398FDD1
:0504A9000FD5F0EA226E
:0E04AE00C3E49FFFE49EFEE49DFDE49CFC225F
:10059A000206E1E493A3F8E493A34003F68001F290
:1005AA0008DFF48029E493A3F85407240CC8C33362
:1005BA00C4540F4420C8834004F456800146F6DF31
:1005CA00E4800B01020408102040809008E3E47ED6
:1005DA00019360BCA3FF543F30E509541FFEE49326
:1005EA00A360010ECF54C025E060A840B8E493A3ED
:1005FA00FAE493A3F8E493A3C8C582C8CAC583CA18
:10060A00F0A3C8C582C8CAC583CADFE9DEE780BECF
:0108E900000E
:00000001FF
